:020000040800F2
:100000008005002049020008F1000008F300000804
:1000100000000000000000000000000000000000E0
:10002000000000000000000000000000F7000008D1
:100030000000000000000000F9000008FB000008BC
:100040005B0200085B0200085B0200085B0200081C
:100050005B0200085B0200085B0200085B0200080C
:100060005B0200085B0200085B0200085B020008FC
:100070005B0200085B0200085B0200085B020008EC
:100080005B0200085B020008000000005B02000841
:100090005B0200085B0200085B0200085B020008CC
:1000A0005B0200085B0200085B020008830D000889
:1000B0005B020008000000005B0200080000000076
:1000C0000348854602F052FF00480047D50000086B
:1000D0008005002000F090FD00F0EEFBE1204002E2
:1000E00000F007FE00F0F5F801E000F00EFAFCE782
:1000F000704700BFFEE77047704770470CB500209F
:10010000019000904C4800680121090408434A49C5
:10011000086000BF48480068012149040840009079
:100120000198401C01900098002804D10521090283
:1001300001988842EED140480068012149040840F6
:10014000002802D00120009001E0002000900098DB
:10015000012839D1112039490860374840683649AB
:100160004860084640684860084640683F210904E6
:100170008843314948600846406811210904084312
:100180002D494860084600680121090608432A49AC
:10019000086000BF2848006801214906084000287F
:1001A000F8D0254840688008800023494860084608
:1001B0004068022108432049486000BF1E4840684B
:1001C0000C2108400828F9D10CBD10B51A48006868
:1001D000012108431849086008464068184908404A
:1001E00015494860084600681649084012490860E9
:1001F000084600680121890488430F4908600846C1
:1002000040683F21090488430B4948600846C06A9A
:1002100000090001C8620846006BFF215431884381
:10022000054908630846406B4008400048630020C9
:100230008860FFF763FF10BD0010024000200240FD
:100240000CB8FFF8FFFFF6FE04488047044800475B
:10025000FEE7FEE7FEE7FEE7FEE7FEE7CB0100086C
:10026000C100000810B5002104E000228C000368E2
:100270001A51491C82688A42F7D810BDFEB505465E
:100280000F46002002902C686E68A868401E0190FE
:10029000002002900CE0606820603168206802F065
:1002A00069FD0090029902F00CFD0290241D361D9C
:1002B0000198411E01910028EDD127603168206826
:1002C00002F058FD0090029902F0FBFC02900298A7
:1002D000FEBD10B501F0E1FC002826D1782001F028
:1002E000D3F8002802D1012000F0A0FC02F05CF855
:1002F000002802D1012000F099FCF32002F074FAEA
:10030000002802D1012000F091FCC92002F055F82C
:10031000002802D1012000F089FC012001F0F9FF42
:10032000002802D1012000F081FC642000F0A3FC31
:10033000FE48FFF797FFFE48FFF794FFFD48FFF7E1
:1003400091FFFD48FFF78EFFFC48FFF78BFFFC484D
:10035000FFF788FF10BD70B586B00026002500208D
:1003600003900490059001900290552000F0B2FC9B
:10037000AA2000F0AFFCF348007800F0ABFCF14895
:1003800000782818C5B2EF480078401CC0B2ED498B
:100390000870C82801DD0020087000262DE07100DB
:1003A000E94A515E7200E94B9A5E891AC803E8492E
:1003B00002F054FCB10003AA5050B00003A9085841
:1003C00000B2710001AA50527100515AC8B200F037
:1003D00081FC700001A9085A4019C5B2710001AA38
:1003E000515A0904080E00F075FC700001A9085A62
:1003F00000124019C5B2701CC6B2032ECFDB002616
:1004000018E07100D34A505C00F064FC7000D149E0
:10041000085C4019C5B27100CE4A515A0904080E51
:1004200000F058FC7000CB49085A00124019C5B2C0
:10043000701CC6B2032EE4DBC74C207800F04AFCE7
:10044000607800F047FCA07800F044FCE07800F011
:1004500041FC20784019C5B260784019C5B2A07837
:100460004019C5B2E0784019C5B2241D207800F0CB
:1004700031FC607800F02EFCA07800F02BFCE078D6
:1004800000F028FC20784019C5B260784019C5B248
:10049000A0784019C5B2E0784019C5B2241D207873
:1004A00000F018FC607800F015FCA07800F012FC59
:1004B000E07800F00FFC20784019C5B26078401950
:1004C000C5B2A0784019C5B2E0784019C5B2241D64
:1004D000207800F0FFFB607800F0FCFBA07800F0D3
:1004E000F9FBE07800F0F6FB20784019C5B260789F
:1004F0004019C5B2A0784019C5B2E0784019C5B21C
:10050000284600F0E7FB06B070BD30B585B000208E
:10051000029003A8914904AB8F4A00910190904941
:10052000904802F099FA8F48008800282ED18D4813
:10053000408800282AD18B488088002826D1884806
:100540000088002822D18648408800281ED184488F
:10055000808800281AD180480068002816D17E487B
:100560004068002812D17C48806800280ED17A4863
:10057000C06800280AD100BFBFF34F8F7A487B497B
:10058000C860BFF34F8F00BF00BFFEE77549002072
:10059000085E02F06AFC054629466748FFF76EFED2
:1005A000044602F074FC00B2674908806D490220DD
:1005B000085E02F05AFC054629466048FFF75EFED9
:1005C000044602F064FC00B25F494880654904209B
:1005D000085E02F04AFC054629465948FFF74EFEE0
:1005E000044602F054FC00B2574988805C49002060
:1005F000085E02F03AFC054629464C48FFF73EFEED
:10060000044602F044FC00B25249088054490220DA
:10061000085E02F02AFC054629464548FFF72EFEF3
:10062000044602F034FC00B24A4948804C49042098
:10063000085E02F01AFC054629463E48FFF71EFEFA
:10064000044602F024FC00B24249888048480088F1
:10065000002869D1474800884749088045484088B4
:10066000488044488088888037490020085E434994
:1006700000228A5E801A002807DD33490020085EC8
:100680003E4900228A5E801A06E03C490020085E4E
:100690002D4900228A5E801A00B2364908802A4914
:1006A0000220085E354902228A5E801A002807DD92
:1006B00025490220085E314902228A5E801A06E03E
:1006C0002E490220085E204902228A5E801A00B26A
:1006D000284948801C490420085E284904228A5E73
:1006E000801A002807DD18490420085E23490422E7
:1006F0008A5E801A06E021490420085E124904221D
:100700008A5E801A00B21B4988801B490020085E5F
:10071000184900228A5E8018FF212D31884233DD7E
:100720001748006816492DE0A6E0000038000020B8
:1007300044000020500000205C00002068000020E1
:100740007400002034000020140000202E0000203F
:10075000208000001A000020F0000020200000206F
:1007600028000020220000200400FA0500ED00E02F
:10077000820000209C000020A200002090000020A9
:1007800084000020086007E03F490020085E3F49E0
:10079000096840183D4908603D490220085E3D490E
:1007A00002228A5E8018FF212D31884204DD3A48FA
:1007B00000683949086007E033490220085E36497D
:1007C000096840183449086031490420085E3149FD
:1007D00004228A5E8018FF212D31884204DD2F48D3
:1007E00000682E49086007E027490420085E2B496D
:1007F0000968401829490860294801880088401C78
:10080000274A1080FF20F53081421DDB0120254959
:100810000880FF21F5311D48006802F01FFA00B280
:1008200021490880FF21F5311B48006802F016FAC3
:1008300000B21D494880FF21F5311848006802F0D8
:100840000DFA00B2184988801848008818490880B5
:100850001648408848801548808888800A48008863
:100860001249088008484088488007488088888066
:10087000012000F000FA05E00E480078012801D1BF
:10088000FFF769FD05B030BD140000208400002092
:10089000A20000209C000020880000208C00002086
:1008A00080000020820000202E0000209000002008
:1008B00096000020AC0000201CB50121480400F087
:1008C0002DFD0C20009001216846017100218171ED
:1008D0000121C1710221417169460920C00600F061
:1008E00081FA0C210920C00600F0D1FA012000F0A5
:1008F000C2F91CBD1CB50820009001216846017199
:10090000002181710121C1710221417169460920D3
:10091000C00600F067FA1CBD1CB50820009000213D
:100920006846017181710121C171022141716946DD
:100930000920C00600F056FA1CBD00BF704710B574
:10094000FFF7D8FF08200921C90688610846008AF8
:10095000002801D1012000E00020082108400028E3
:1009600001D0002010BD04200921C9068861FFF7CD
:10097000E4FF08209F4908810920C006008A082159
:100980000840002801D00020ECE7FFF7D6FF042044
:10099000984908810120E5E710B5FFF7ABFF042077
:1009A0009449088108200881FFF7C7FF0420092126
:1009B000C906886108208861FFF7BFFF10BD10B528
:1009C00004208C490881FFF795FF08208949088198
:1009D000FFF7B3FF04200921C9068861FFF7ADFFC7
:1009E00004208449088110BD10B504208149088184
:1009F000FFF780FF08200921C9068861FFF79DFFE6
:100A000004200921C9068861FFF797FF042079496E
:100A1000088110BD10B53224FFF77EFF08200921A0
:100A2000C9068861FFF789FF04200921C90688618A
:100A3000FFF783FF09E0601EC0B2040003D1FFF797
:100A4000ABFF002010BDFFF778FF0920C006008A29
:100A5000082108400028EED10420664908810120C1
:100A6000F0E770B504460825FFF744FF042061490C
:100A700008811AE080202040002804D008200921A5
:100A8000C906886102E008205A4908816006040E00
:100A9000FFF753FF04200921C9068861FFF74DFFC6
:100AA000042054490881FFF748FF2846691ECDB24B
:100AB0000028DFD170BD70B505460024FFF72CFF7C
:100AC00000261AE004204B490881FFF736FFFFF7A4
:100AD00034FF04200921C90688616006040E084617
:100AE000008A08210840002801D0601CC4B2FFF72A
:100AF00024FFFFF722FF701CC6B2082EE2DB002D98
:100B000002D0FFF75CFF01E0FFF76EFF204670BDEB
:100B1000FFB581B0054616461F46FFF710FF0028B7
:100B200002D1012005B0F0BD6906080EFFF799FF5C
:100B3000FFF770FF002803D1FFF72EFF0120F1E738
:100B40000298FFF78EFFFFF765FF002406E0385D8F
:100B5000FFF787FFFFF75EFF601CC4B2B442F6DB0D
:100B6000FFF71AFF0020DDE7F8B506460F461446EA
:100B70001D46FFF7E4FE002801D10120F8BD7106F3
:100B8000080EFFF76EFFFFF745FF002803D1FFF7C0
:100B900003FF0120F2E73846FFF763FFFFF73AFF54
:100BA000002803D1FFF7F8FE0120E7E7FFF7C7FEB3
:100BB0007100491CC8B2FFF754FFFFF72BFF002854
:100BC00003D1FFF7E9FE0120D8E70DE0012C04D1A5
:100BD0000020FFF770FF287003E00120FFF76BFF94
:100BE00028706D1C601EC4B2002CEFD1FFF7D4FE3C
:100BF0000020C3E72000004810B50420C04300F0E7
:100C0000A4F92F492F48006802F012F80446062183
:100C100002F00EF840B22C490870002008567D21E1
:100C2000C900484300B22949088010BD0146264A40
:100C30000023D3560A465A43254B5A6100229A6133
:100C40001A46126901231A43214B1A6100BF204A38
:100C50001069C207D20F002A04D0012212040240F8
:100C6000002AF4D01A4A126952085200184B1A612D
:100C700000229A6170470146144A0023D35E0A4657
:100C80005A43134B5A6100229A611A461269012392
:100C90001A430F4B1A6100BF0D4A1069C207D20FE9
:100CA000002A04D0012212040240002AF4D0084A8B
:100CB000126952085200064B1A6100229A6170476D
:100CC00000127A0000000020A8000020AA000020E6
:100CD00000E000E010B5044621463D4800F0D7F999
:100CE00000BF80213A4800F0FCF90028F9D02046E6
:100CF00010BD10B58AB004460121480400F00EFB77
:100D00000121880300F018FB01220921C80600F028
:100D1000C2F801220A210920C00600F0BCF8032015
:100D200040020890022108A80171032141710021AD
:100D300081710121C17108A90920C00600F052F893
:100D40000294002003900490059007900C200690D8
:100D500002A91F4800F00EF901221E491C4800F0AC
:100D60009FF901211A4800F086F91B21684601719C
:100D7000022141710121817101A800F0B1F80AB08E
:100D800010BD10B51349124800F0B5F900281ED067
:100D90000F4820308088C1B20F4802780078401C8C
:100DA0000D4B18700D4881541846007803280ED159
:100DB0000A48007855280AD108484078AA2806D160
:100DC00006488078022802D101200549087010BD2C
:100DD0000038014005010500B0000020AD000020F2
:100DE000AC000020F0B50A4600210023002400BF1B
:100DF0003DE001258D402B4615681D402C469C4248
:100E000034D11579012D02D01579022D16D18568BE
:100E10004F000326BE40B543856055794E00B5406E
:100E2000866835438560858801268E40B543858078
:100E3000858896798E40B6B23543858005684F0027
:100E40000326BE40B543056015794E00B5400668DF
:100E500035430560C5684F000326BE40B543C560F5
:100E6000D5794E00B540C6683543C560491C102988
:100E7000BFD3F0BD19490160002101710221417108
:100E800000218171C17170470146088A70478161F4
:100E9000704701857047F0B5002300244D07EE0E22
:100EA0001546B5402B46CD10AE0005462035AD5950
:100EB0004E07F70E0F26BE40B543CE10B6000746CC
:100EC0002037BD51CD10AE003D46AD591D432C46D7
:100ED000CD10AD003E467451F0BD0000FFFF000094
:100EE00000218278002A27D0204A03231B02D2182F
:100EF00003789B109B00D15802789207D30EFF22F3
:100F00009A400B469343194642789207120E037893
:100F10009B07DB0E9A401143144A03231B02D2188D
:100F200003789B109B00D1500278D306DB0E012280
:100F30009A400E4B1A6007E00278D306DB0E0122BE
:100F40009A400A4B80331A607047042806D108493A
:100F5000096904221143064A116105E0044909693F
:100F600004229143024A11617047000000E100E051
:100F700000E000E0F0B589B005460E4600240020F0
:100F8000089000BF00BF28684008400028606C68D7
:100F900003210903204688430446B06804436C607B
:100FA0002C686D480440F168706808433169084353
:100FB00004432C60AC6803210902204688430446A0
:100FC00070690443AC60684600F0FEF863488542EF
:100FD00002D10698089001E0029808902868012143
:100FE000C9030840002809D0326851001923089A23
:100FF0005A43104601F01CFE074608E03268910093
:101000001923089A5A43104601F012FE074664213C
:10101000384601F00DFE0401200964214843381AC6
:10102000079028680121C903084000280AD00799C1
:10103000C90008463230642101F0FAFD4007400F34
:10104000044309E00799090108463230642101F0A0
:10105000EFFD0007000F0443AC8109B0F0BD4B2148
:10106000C9010160002141608160C1600C21016102
:10107000002141617047002904D0026801231A430E
:10108000026003E002685208520002607047CA051D
:10109000D20D028570470146888CC005C00D70478F
:1010A000F8B50346002400260096002500201846C7
:1010B0000E04340ECEB200960127009EB7403D4686
:1010C000022C01D1001D02E0032C00D10830002ABF
:1010D00003D006682E43066002E00668AE43066051
:1010E000F8BD02460020D3690B40002B01D001203F
:1010F00000E00020704770B502460B460024002136
:10110000002500201E04350ED9B201268E4031463E
:10111000012D02D11668314006E0022D02D1566839
:10112000314001E0966831401C0C0126A64034464F
:10113000D6693440002903D0002C01D0012000E002
:10114000002070BD10B5002300220B0C01249C4030
:101150002246026210BD0000F3E9FFFF00380140A3
:101160007C480068012108437A49086008464068C5
:10117000794908407749486008460068774908403F
:101180007449086008460068012189048843714950
:101190000860084640683F21090488436D4948605B
:1011A0000846C06A00090001C8620846006BFF21BA
:1011B00054318843674908630846406B4008400043
:1011C0004863002088607047FEB50446002500266D
:1011D00000200190009000275E4840680C210840E4
:1011E0000546002D04D0042D05D0082D28D105E09A
:1011F0005B48206027E05A48206024E0554840685A
:101200000F2189040840064652484068012109041C
:1012100008400190B00C861C0198002803D1514869
:10122000704320600BE04B48C06A0007000F401C71
:1012300000904B48009901F0FBFC7043206002E0F5
:101240004748206000BF00BF42484068F021084086
:1012500005462D094448475D2068F84060603D48D8
:10126000406807210902084005462D0A3E48475DAF
:101270006068F840A0603748006BFF2101310840EA
:10128000884202D03948E0600DE0324840680121D0
:1012900089030840884203D0A0684008E06002E06B
:1012A000A0688008E0602B48006B4021084040287F
:1012B00002D02F48206102E00120C00320612548B0
:1012C000006B10210840102802D02548606101E021
:1012D000206860611F48006B8007800F002802D1E2
:1012E000A068A06119E01B48006B8007800F0128EF
:1012F00002D12068A06110E01648006B8007800FC3
:10130000022802D18003A06107E01248006B800729
:10131000800F032801D11248A061FEBD002905D02D
:101320000C4A526902430B4B5A6104E0094A526964
:101330008243084B5A617047002905D0054A9269DB
:101340000243044B9A6104E0024A92698243014BD2
:101350009A617047001002400CB8FFF8FFFFF6FEDC
:1013600000127A0000093D00B1000020809FD500E6
:101370001280000038B50446F948007F00281DD0CF
:10138000002C02D00220009001E000200090F44ADE
:10139000083A1268D17BF24A083A526810786B46D4
:1013A0000122FFF7B5FB002802D00020C04338BD62
:1013B00068460178EA48083841742CE0E848083863
:1013C000807A002801D1401EF1E7002C06D0E448C5
:1013D0000838407C002801D00020E8E7002C02D02B
:1013E0000120009001E000200090DD4A083A1268D8
:1013F000D17BDB4A083A526810786B460122FFF72E
:1014000087FB002802D00020C043D0E7684601785F
:10141000D348083841740020C9E738B50446D0489D
:10142000C07EA04201D1002038BD002C02D0302067
:10143000009001E000200090C9480838807C002816
:1014400004D069460878022108430090C448807E91
:10145000002804D069460878802108430090C04ADB
:10146000083A1268117DBE4A083A526810786B46F5
:101470000122FFF74DFB002802D00020C043D3E734
:10148000B748C4760020CFE738B504467020204026
:10149000002802D00120009006E0002C02D000209D
:1014A000009001E040200090AD4A083A1268917C1B
:1014B000AB4A083A526810786B460122FFF728FBC6
:1014C000002805D00021A64808388172481E38BD82
:1014D0006846007840218843A149083908730021F3
:1014E000009140202040002804D16946087804215A
:1014F0000843009020202040002804D16946087845
:1015000002210843009010202040002804D16946A1
:10151000087801210843009008202040002804D1C9
:10152000694608783821084300908D4A083A1268C5
:10153000D17C8B4A083A526810786B460122FFF73B
:10154000E7FA002805D00021854808388172481E36
:10155000BDE7002C04D0082C02D00020FFF75DFF6F
:101560007F4808388472002101753220FFF783FB21
:101570000020ACE738B5044679480838807CA042A2
:1015800001D1002038BD002C4ED0754A083A1268AF
:101590001179734A083A526810786B460122FFF7B6
:1015A000E3FA002802D00020C043EBE76946087840
:1015B0002021884300906A4A083A12681179684AE3
:1015C000083A526810786B460122FFF7A1FA00280A
:1015D00002D00020C043D5E70320FFF74CFB0220D8
:1015E00000905F48807E002804D0694608788021FA
:1015F000084300905A48C07E002804D06946087805
:10160000302108430090564A083A1268117D544A26
:10161000083A526810786B460122FFF779FA0028E1
:101620005CD00020C043ADE74D4A083A12681179FA
:101630004B4A083A526810786B460122FFF794FA39
:10164000002802D00020C0439CE745480838807A33
:10165000C007C00F002805D069460878202108433C
:10166000009004E0694608782021884300903C4AB5
:10167000083A126811793A4A083A526810786B466B
:101680000122FFF745FA002802D00020C04379E785
:101690000320FFF7F0FA3248807E002802D0802035
:1016A000009001E0002000902D48C07E002804D06A
:1016B00069460878302108430090294A083A1268A0
:1016C000117D274A083A526810786B460122FFF7CD
:1016D0001FFA002802D00020C04353E720480838F2
:1016E000847400204EE708B51D480838807A002829
:1016F00001D1401E08BD00200090194A083A126826
:10170000D17B174A083A526810786B460122FFF7DE
:10171000FFF9002802D00020C043EBE7104A083A46
:10172000126851790E4A083A526810786B460122C5
:10173000FFF7EEF9002802D00020C043DAE7084A9C
:10174000083A12681179064A083A526810786B46CE
:101750000122FFF7DDF9002804D00020C043C9E7CB
:10176000CC000020FE48007F00285FD00C200090B5
:10177000FB4A083A12681179F94A083A5268107817
:101780006B460122FFF7C4F9002802D00020C043B5
:10179000B0E7C0200090F2480838807AC007C00F38
:1017A000002804D069460878202108430090EC4ABC
:1017B000083A12681179EA4A083A526810786B467A
:1017C0000122FFF7A5F9002802D00020C04391E7CD
:1017D000E3480838407C002802D00220009001E055
:1017E00000200090DE4A083A1268D17BDC4A083AB1
:1017F000526810786B460122FFF78AF9002802D060
:101800000020C04376E700200090D54A083A1268CD
:101810005179D34A083A526810786B460122FFF793
:1018200077F9002864D00020C04363E704200090CB
:10183000CB4A083A12681179C94A083A52681078B6
:101840006B460122FFF764F9002802D00020C04354
:1018500050E7C3480838807C002806D1C0480838C3
:10186000807AC007C00F002802D14020009001E01C
:1018700060200090BA4A083A12681179B84A083ACA
:10188000526810786B460122FFF742F9002802D017
:101890000020C0432EE7B2480838407C002802D020
:1018A0000120009001E000200090AD4A083A126843
:1018B000D17BAB4A083A526810786B460122FFF799
:1018C00027F9002802D00020C04313E7A44A083AB1
:1018D00012685179A24A083A52681078A04B08332E
:1018E0000122FFF715F9002802D00020C04301E7CC
:1018F0000020FFE670B5044600266408640098489E
:10190000007F002801D0002070BD95480838807AFB
:10191000002801D1401EF7E791480838057C807AFD
:1019200020408F49083908740846007CA04202D044
:101930000026F64300E00026002C04D18848083831
:10194000007D002803D00120FFF714FD02E00020F5
:10195000FFF710FD002C09D0FFF7C5FE002805D0C9
:101960007F48083805740020C043CDE73046CBE7F8
:1019700038B504467A480838807A002801D1401EDC
:1019800038BDBC2C02DB0120009015E0622C02DB8C
:101990000220009010E02A2C02DB032000900BE0D4
:1019A000142C02DB0420009006E00A2C02DB052048
:1019B000009001E00620009069480838C07A694626
:1019C0000978884201D10020DAE7654A083A1268AE
:1019D0009178634A083A526810786B460122FFF703
:1019E00097F8002802D00020C043C9E76846017874
:1019F0005B480838C1720020C2E738B50446282C7D
:101A000002DD0020C04338BD002C1DD10020FFF7AF
:101A100004FD00216846017007214170504A083AD0
:101A20001268917C4E4A083A526810786B4602223E
:101A3000FFF76EF8002801D0601EE4E70021484857
:101A4000083801750020DEE70120FFF7E6FC2020C2
:101A500069460870012C05D1002048700520FFF769
:101A600087FF17E0052C06DC012069464870052039
:101A7000FFF77EFF0EE0142C06DC0220694648705A
:101A80000A20FFF775FF05E003206946487014201F
:101A9000FFF76EFF684640788001C01DC1B26846FE
:101AA00041702F4A083A1268917C2D4A083A5268D0
:101AB00010786B460222FFF72BF8002802D0002096
:101AC000C043A0E70821264808388172002101732D
:101AD000012101750020FFF70DFF002093E738B5C5
:101AE00004461F480838807A002801D1401E38BDBE
:101AF0001B48007F002802D00020C043F7E71848A9
:101B00000838007D00280BD0002C06D0282C04DCDF
:101B1000E0B2FFF772FF0020E9E70020FFF76DFF5A
:101B2000042C01DA042404E07D20C000844200DD9E
:101B3000044621467D20C00001F090F8401EC0B24E
:101B40000090074A083A12685178054A083A5268E4
:101B500010786B460122FEF7DBFF002805D001E07C
:101B6000CC0000200020C043C1E768460078411C3B
:101B70007D20C00001F072F881B2FA48C1810146AF
:101B8000C9894810FFF7F4FE0020B0E738B50446D5
:101B9000F448807A002801D1401E38BD022C06D0BE
:101BA000042C07D0082C08D0102C0CD108E0002001
:101BB00000900BE00820009008E01020009005E065
:101BC0001820009002E00020C043E6E700BFE5488F
:101BD000407A69460978C910884201D10020DCE7C3
:101BE000E04A1268D179DF4A526810786B460122C8
:101BF000FEF78EFF002802D00020C043CDE76846E4
:101C00000078C110D74841720020C6E738B50446B5
:101C1000D448807A002801D1401E38BD2046FA2CD5
:101C20000CD0FF38F53800280BD0FF38F5380028E5
:101C30000AD07D21C900401A0CD108E00020009094
:101C40000BE00820009008E01020009005E018202C
:101C5000009002E00020C043DFE700BFC148007AE7
:101C600069460978C910884201D10020D5E7BD4AEC
:101C700012689179BB4A526810786B460122FEF7D0
:101C800047FF002802D00020C043C6E7684600781E
:101C9000C010B44908720020BFE71CB58020694617
:101CA0000870B04A1268917CAE4A526810786B4650
:101CB0000122FEF72DFF002802D00020C0431CBDEA
:101CC0006420FEF7D8FF002069460870A54A126814
:101CD000917CA44A526810786B460122FEF718FFE7
:101CE000002802D00020C043E9E79E4A1268917D97
:101CF0009C4A526810786B460622FEF735FF002892
:101D000002D00020C043DAE768464079C007410F9F
:101D10006846C078C007800F084369464978C907FC
:101D2000C90F04460C43002C0ED0012C03D1012115
:101D30008C48C17428E0022C03D100218948C17469
:101D400022E00020C043BAE7864A1268D178854A6B
:101D5000526810786B460122FEF706FF002802D079
:101D60000020C043ABE7684600780407240F002C2E
:101D700001D1601EA3E7042C03D101217948C1746D
:101D800002E000217748C174FF2176488172FF206C
:101D900074490872FF2173484172C1720021C9431E
:101DA000C181FF21017481740121017308308176A2
:101DB0000021C1760838417501750C21163000F0FC
:101DC00068FF002167480830017741770838C184EF
:101DD0007D200001FFF71AFF002802D00020C04339
:101DE0006DE70220FFF7D2FE002802D00020C0439A
:101DF00065E76220FFF7BCFD002802D00020C04349
:101E00005DE7C920FFF76BFE002802D00020C04329
:101E100055E70020FFF76EFD002802D00020C043E8
:101E20004DE70020FFF7A6FB002802D00020C043AA
:101E300045E70020FFF728FB002040E7014649481E
:101E4000407A002806D0012807D0022808D00328AD
:101E50000CD108E0022008700BE00420087008E0B4
:101E60000820087005E01020087002E00020C04340
:101E7000704700BF3B48C07C002803D0087840066C
:101E8000000E08700020F3E7FFB585B007461D4639
:101E90000026002433480830007F002802D0601E4E
:101EA00009B0F0BD002028702E48807A002801D1AA
:101EB000401EF5E72B48007C002801D1401EEFE7CB
:101EC0002848007C40210840002801D0B01CC6B240
:101ED0002448007C20210840002801D0B01CC6B254
:101EE0002048007C10210840002801D0B01CC6B258
:101EF0001C48007C08210840002801D0B01DC6B253
:101F000018480068817A17484068007802AB0222BE
:101F10000090FEF729FE002802D00020C043BFE752
:101F20006946087A0002497A084301900198B04254
:101F300001DA0020B4E70B4840684088411001985E
:101F400081421CDA07480068417C064840680078F6
:101F500002AB01220090FEF707FE002804D000200B
:101F6000C0439DE7C40000206846007A1021084065
:101F7000002804D0FFF7B7FB0120C04390E7FD48DD
:101F80000068C17AFB484068007802AB3246009096
:101F9000FEF7EAFD002802D00020C04380E731466A
:101FA000019800F05BFE401EC1B20E980170002047
:101FB0002870B44229D0EF48007C0821084000284E
:101FC00023D002A8005D000202AA611C515C0843F4
:101FD00001B20698018002A9A01C085C0002E11C65
:101FE000515C084301B20698418002A9201D085C9B
:101FF0000002611D515C084301B206988180287877
:10200000082108432870A01D84B2B44214D0D948D6
:10201000007C4021084000280ED002A8005D00028C
:1020200002AA611C515C084300B238802878402124
:1020300008432870A01C84B2B44214D0CD48007C60
:102040002021084000280ED002A8005D000202AA4C
:10205000611C515C084300B2788028782021084335
:102060002870A01C84B2B44214D0C248007C102155
:10207000084000280ED002A8005D000202AA611CE0
:10208000515C084300B2B8802878102108432870BA
:10209000A01C84B2002003E7F8B504460F4616469C
:1020A000B4480830007F002801D1401EF8BDB14877
:1020B000807A002801D1401EF8E7AE4A1268917A72
:1020C000AC4A526810786B460222FEF74DFD00289C
:1020D00002D00020C043E9E7694608780502497844
:1020E0000D43A54203DA00203070401EDEE7A14810
:1020F000406840884010A84219DA9E4A1268517C14
:102100009C4A526810786B460122FEF72DFD00288C
:1021100002D00020C043C9E768460078102108407B
:10212000002804D0FFF7DFFA0120C043BEE7E2B287
:10213000904B1B68D97A8F4B5B6818783B46FEF74B
:1021400013FD002802D00020C043AFE721462846F7
:1021500000F084FD401E30700020A7E7F8B504466B
:102160000D461646002E01D1501EF8BD8148807ADA
:10217000002801D1401EF8E7211268460170447022
:10218000407840197B4949684989884202DD00202E
:10219000C043EAE7774A1268117E764A526810789F
:1021A0006B460222FEF7B4FC002802D00020C04398
:1021B000DBE7EAB26F4B1B68597D6E4B5B681878A2
:1021C0003346FEF7A5FC002802D00020C043CCE730
:1021D0000020CAE7F8B504460D461646002E01D188
:1021E000501EF8BD6348807A002801D1401EF8E7F0
:1021F0002112684601704470407840195D49496871
:102200004989884202DD0020C043EAE7594A126842
:10221000117E584A526810786B460222FEF778FC0D
:10222000002802D00020C043DBE7EAB2514B1B6814
:10223000597D504B5B6818783346FEF795FC0028B3
:1022400002D00020C043CCE70020CAE7FFB587B02A
:1022500005460E4647480830407F002803D000203E
:10226000C0430BB0F0BD002E01D1701EF9E7002471
:102270002CE0281B102801DD102000E0281B87B26D
:10228000321939462046FFF769FF002802D00020A6
:10229000C043E6E70220FEF7EEFC03AA39462046DB
:1022A000FFF798FF002802D00020C043D9E730197B
:1022B0003A4603A900F0F8FC002802D00120C043F0
:1022C000CFE70220FEF7D7FCE01984B2AC42D0DBA6
:1022D00009980112684601720998C1B268464172B4
:1022E00024480068817E23484068007802AB0222BF
:1022F0000190FEF70DFC002802D00020C043B0E79B
:1023000001211C48083041771A490A98C8840020E6
:10231000A7E738B5044617480830007FA04201D12E
:10232000002038BD002C27D012480830407F0028FC
:1023300001D1401EF5E70020FFF71CF80020FFF751
:1023400019F90C49C88CFFF7CAFB00200090094915
:10235000496808786B4601222321FEF7D9FB012149
:102360000448083001770120FFF704F8FFF7BBF9B4
:1023700016E00000C40000200020FEF7FBFF094823
:10238000007C00900749496808786B4601222321A8
:10239000FEF7BEFB0021034808300177FFF7A3F9E1
:1023A0000020BEE7C400002010B5C823012292021D
:1023B000FA49FB48FFF74AFF10BD30B585B0044627
:1023C000F8A207CA02AB07C3C82C03DD0020C04334
:1023D00005B030BD2146C82000F040FC401E85B24B
:1023E0002812694608704D706A460221F048FFF7CE
:1023F000B5FE002802D00020C043E9E702AA0C2164
:10240000EC48FFF7ABFE002802D00020C043DFE716
:10241000E94884810020DBE7F0B585B006460F4629
:102420007007400F002803D019208001874203DD88
:102430000020C04305B0F0BD384600F021FDDF4963
:10244000009000F0D4FC019002A8FFF7F7FC68466A
:10245000007A022806D0042816D0082826D0102892
:1024600048D135E08D21C905019800F083FC00902A
:1024700000F026FD84B2D249019800F07BFC009068
:1024800000F01EFD85B238E023214906019800F0D6
:1024900071FC009000F014FD84B2CA49019800F06C
:1024A00069FC009000F00CFD85B226E08B21C90587
:1024B000019800F05FFC009000F002FD84B2C24978
:1024C000019800F057FC009000F0FAFC85B214E08F
:1024D00045210906019800F04DFC009000F0F0FC49
:1024E00084B2BA49019800F045FC009000F0E8FC85
:1024F00085B202E00020C0439CE700BF211268467D
:102500000173447329128173C573F007C00F00284B
:1025100016D003AA0221FF20D530FFF71FFE0028A6
:1025200002D00020C04385E703AA02320221FF2027
:102530002530FFF713FE002802D00020C04379E7C2
:1025400002203040002816D003AA0221FF20D930F3
:10255000FFF704FE002802D00020C0436AE703AA68
:1025600002320221FF202930FFF7F8FD002802D0B7
:102570000020C0435EE704203040002816D003AAA4
:102580000221FF20DD30FFF7E9FD002802D0002006
:10259000C0434FE703AA02320221FF202D30FFF78C
:1025A000DDFD002802D00020C04343E7002041E7C2
:1025B00038B5044600200090E007C00F002804D082
:1025C0006946087830210843009002202040002806
:1025D00004D0694608780C2108430090042020406C
:1025E000002804D0694608780321084300906A4611
:1025F0000121FF204930FFF7B1FD38BD38B5044651
:10260000012C01DA012402E0042C00DD0424601E08
:10261000C0B200906A460121FF205030FFF79EFDB6
:1026200038BD38B505460521284600F017FB84B2B1
:1026300021126846017044706A460221FF20DF3093
:10264000FFF78CFD38BD38B505460521284600F05A
:1026500005FB84B221126846017044706A4602216B
:10266000FF20DB30FFF77AFD38BDF8B506460D4692
:102670007D21C900304600F0F1FA68430446210E7E
:10268000684601702002010E684641702004010E68
:1026900068468170C4706A460421FF205D30FFF7F0
:1026A0005DFDF8BD38B504460521204600F0D6FA98
:1026B00084B221126846017044706A460221FF20EC
:1026C0005B30FFF74BFD38BD38B504460521204689
:1026D00000F0C4FA84B221126846017044706A4660
:1026E0000221FF205930FFF739FD38BD38B50446C7
:1026F000002C09D02021684601702821417030212A
:1027000081703821C17004E0A3220421684600F0E2
:10271000B9FA6A46042127482338FFF71FFDFEF760
:10272000E2FF38BD38B50446002C09D0C021684608
:102730000170C2214170C4218170C621C17004E0C2
:102740008B220421684600F09DFA6A46042119484C
:102750002938FFF703FDFEF7C6FF38BD3EB5044636
:10276000002C0DD01AA10A6848688968009202916D
:1027700001906A4609219720C000FFF7EFFC3EBD9B
:1027800016A21168506892680292009101906A4600
:1027900009219720C000FFF7E1FCF0E7F72F0008C0
:1027A000F60B0000FEF2ABC4AAF1DFDFBBAFDFDF48
:1027B00016020000C10A00006C010020000048431E
:1027C000000040460000C045000040450000C044F5
:1027D000B8AAB38DB4980D355D000000B8AAAAAAB6
:1027E000B088C3C5C70000003EB504460221684654
:1027F0000170CA214170E32181700921C1706A46CC
:1028000004216820FFF7AAFCA3216846017040203C
:102810002040002807D0C02168464170C82181703F
:10282000C221C17004E0A321684641708170C1706B
:10283000FF2081302040002807D0C4216846017164
:10284000CC214171C621817104E0A3216846017148
:1028500041718171A3216846C171017241726A465A
:102860000A21EF48FFF77AFCA007800F002803D069
:1028700020206946087002E0D820694608706A4640
:102880000121E7480F30FFF769FC20202040002895
:1028900003D00120FFF762FF02E00020FFF75EFF98
:1028A000FF208130204000281DD0FF200130204033
:1028B000002809D0B221684601708B214170B621F1
:1028C00081709B21C17008E0B021684601708021B1
:1028D0004170B42181709021C1706A460421D048B2
:1028E000401FFFF73BFCE007C00F002824D0F82072
:1028F000694608706A4601218B200001FFF72EFC13
:10290000FA210720FFF788FD0720FFF751FE01207D
:10291000FFF774FE6420FFF784FEFF20F530FFF719
:1029200092FEC821BF48FFF7A0FE2820FFF7BAFE9D
:102930000A20FFF7C9FE08E0D820694608706A46F9
:1029400001218B200001FFF709FC02202040002814
:1029500003D0D9206946087002E0D8206946087083
:102960006A460121B048FFF7F9FB04202040002807
:1029700003D00120FFF7D6FE02E00020FFF7D2FED1
:1029800010202040002803D00120FFF7AFFE02E016
:102990000020FFF7ABFE08202043A4494881FEF742
:1029A000A2FE0020A149887340202040002803D0C7
:1029B0000846807B801D8873FF20813020400028DE
:1029C00004D09A48807B801D984988731420204049
:1029D000002804D09548807B103094498873A00764
:1029E000800F002804D09148807B001D8F49887398
:1029F00000203EBDF8B50446E078C02108400090B4
:102A0000E0788506AD0E6078C007C00F002813D0AF
:102A1000EE102846E917490F0918C910C900691AAC
:102A2000491CCFB281480068002804D07F4839464D
:102A300002683046904700BF6078082108400028AF
:102A400008D07A484068002804D0009A9011774A4C
:102A5000516888470020F8BDFFB58DB00746154680
:102A6000169E0024002030807049887B05A9179AA3
:102A7000FFF712FB002802D0601E11B0F0BD6B48BA
:102A8000408914210840002869D06946087D000665
:102A9000497D090408436946897D0902084369465E
:102AA000C97D084328606946087E0006497E0904FE
:102AB00008436946897E090208436946C97E08437E
:102AC00068606946087F0006497F09040843694633
:102AD000897F090208436946C97F0843A86008A99D
:102AE0000878000649780904084308A9897809028A
:102AF000084308A9C9780843E86020461030C4B2EA
:102B0000286800140190686800140290A8680014F6
:102B10000390E868001404900198404302994943E7
:102B2000411803984043091804984043081800903E
:102B30000F2109060098884204DB1121090600983C
:102B4000884205DDFEF7CFFD00203080401E94E76F
:102B50000020305EFF2101310843308000BF334840
:102B6000408940210840002824D005A8005D0002CB
:102B700005AA611C515C084301B20E98018005A9A9
:102B8000A01C085C0002E11C515C084301B20E98D5
:102B9000418005A9201D085C0002611D515C0843AD
:102BA00001B20E988180A01DC4B20020305E0821C1
:102BB000084330801D484089FF21813108400028AA
:102BC00021D005A8005D000205AA611C515C0843E4
:102BD00000B2388005A9A01C085C0002E11C515C11
:102BE000084300B2788005A9201D085C0002611D21
:102BF000515C084300B2B880A01DC4B20020305E12
:102C00007021084330800948807A8007800F0028AF
:102C100003D005A90819FFF7EDFE00202DE70000FD
:102C2000A70A000009E3CA023D0700006C0100206A
:102C300030B50B46014600202022012409E00D4654
:102C4000D5409D4205D31D469540491B25469540DC
:102C500040191546521E002DF1DC30BD70B5002420
:102C60002546002801DA01244042002901DA012525
:102C70004942FFF7DDFFAC4200D04042002C00D0BB
:102C8000494270BDD2B201E00270401C491EFBD225
:102C900070470022F6E710B513460A460446194667
:102CA000FFF7F0FF204610BD30B504460020034674
:102CB00000E05B1C934203D2E05CCD5C401BF8D08B
:102CC00030BDF8B502464A40D40F42004B005208CE
:102CD0005B089A4202D20246084611464A0023D0B7
:102CE000C30D4A00DDB2120EAD1A202D35DA4902AD
:102CF0000126490AF6058A19002C00D052422021EB
:102D00004F1B1146B9402A411018C20D9A4221D0DA
:102D1000002C17D0012D08DCDA05801AD20F80199B
:102D2000D207DBB200F0E8F8F8BDDA05801A01231B
:102D300040001B06C01880185A428018CA0F104362
:102D4000490007E04908C2071143DA05801A8019D3
:102D50004008801800F0C8F8F8BD61000122511A3F
:102D6000001BF7E70122D2075140AAE70122D20750
:102D70005040A6E7024670B54A40D30FDB0740003B
:102D80002DD04A002AD0010E140E00021202091999
:102D9000400A520A8418E50104465443000A120A04
:102DA0002E045043A4194219200CC543AA18120C32
:102DB0000125AD03521C521912047F39240400D09E
:102DC000521C104301D44000491EC2B20C06C00977
:102DD0002018401C4008802A02D003E0002070BD6B
:102DE00040084000002900DA0020184370BD70B58B
:102DF00002464A40D50F40004A00ED0740085208FD
:102E0000002814D0002A12D0C40DD30D4102012095
:102E1000C0055202490A520AE41A091812187D34F0
:102E2000914201D3641C00E04900002C01DA00202B
:102E300070BD0023914201D3891A03434008490021
:102E40000028F7D100290AD0914202D10121C907F7
:102E500005E0914201D2012101E00121C943E005D1
:102E6000C018401900F040F870BDC217C10F5040A3
:102E700010B54018CA079623002100F03DF810BD98
:102E800010B500229623114600F036F810BDC20F8F
:102E9000410040020123400ADB05D207090EC01899
:102EA0007F2901DA00207047962903DC9623591AFE
:102EB000C84001E096398840002AF4D0404270476B
:102EC000410040020122400AD205090E80187F29E4
:102ED00001DA00207047962903DC9622511AC84077
:102EE0007047963988407047002904DA401C490031
:102EF00001D140084000704770B40024050C05D192
:102F00001024000402D1002921D01124050E01D182
:102F100000020834050F01D10001241D850F01D1E5
:102F20008000A41C002801DB4000641C002908D09C
:102F300020252E1B0D46F540A14000D0012129433C
:102F4000084301061B1B000ADB1D02D5002070BCD4
:102F50007047DB05181880180029F8DA401C490072
:102F6000F5D170BC4008400070470000064C0125B8
:102F7000064E05E0E36807CC2B430C3C9847103421
:102F8000B442F7D3FDF7A0F8F03B0008103C00086E
:102F900002E008C8121F08C1002AFAD17047704722
:102FA000002001E001C1121F002AFBD17047000080
:102FB0001D5A643EF2D28D3EF2D28D3E1D5A643EC1
:102FC00036CD7B3E6519823E6519823E36CD7B3E0D
:102FD0006800000476005401F7FD000175191A0C11
:102FE0006A231B1C1F207274433B4138393A6B6CB7
:102FF000376F06246D6E7000007000000000240022
:103000000000020003000000650054FFEF0000FA1A
:1030100080000B12820001030C30C30E8C8CE9146B
:10302000D5400213710F8E3883F8833000F8832562
:103030008EF8833000F883FFFFFFFF0FFEA9D62430
:103040000004001A8279A10000003CFFFF0000008C
:1030500010000038836FA2003E03304000000002E1
:10306000CAE3093E8000002000000000000000408C
:1030700000000060000000000C0000000C186E0052
:103080000006920A16C0DFFFFF0256FD8CD377FFC1
:10309000E1C496E0C5BEAA00000000FFFF0B2B00B4
:1030A000001657000003594000000000001DFA0000
:1030B000026C1D000000003FFFDFEB003EB3B600D6
:1030C0000D227800002F3C00000000001942B500DE
:1030D0000039A20000B365D90E9FC91DCF4C343012
:1030E000000000500000003BB67AE80064000000D9
:1030F000C8000000000000100000001000FA92104C
:1031000000225E000D229F0001000000320000FF3F
:1031100046000063D400001000000004D600000444
:10312000CC000004CC000000001072000000400041
:10313000000000000000000006000200050007007B
:103140000000000064000000000000000000050016
:1031500005006400200000000000000000000000E6
:103160000040000000030000000032F8980000FF5B
:10317000650000830F0000FF9BFC000000000000C2
:10318000000000000000000000000000000000003F
:10319000000000000000000000000000000000002F
:1031A00000000000001000400000000000000600C9
:1031B00000B26A000200000001FB8300680000000A
:1031C000D9FC007CF1FF83000000000065000000D6
:1031D0006403E800640028000000250000000016D9
:1031E000A000000000100000001000002F000000F0
:1031F0000001F40000100000280000FFFF4581FFDF
:10320000FFFA72000000000000000000440005000A
:1032100005BAC6004778A2000000010000000000C7
:10322000000600000000140000254D002F706D0006
:103230000005AE000C02D0000000000000000000FD
:1032400000000000000000001B0000000000000063
:103250000000000000000000640000000800000002
:10326000000000000000000000000000000000005E
:10327000000000000000000000000000000000004E
:10328000000000000000000000000000000000003E
:10329000000000000000000000000000000000002E
:1032A000000000000000000000000000000000001E
:1032B00000000000000000001B00000000000000F3
:1032C000000000000E000E00000AC700040000000D
:1032D000000032FFFFFF9C00000B2B0000000200EB
:1032E00000000100000064FFE50000000000000095
:1032F00000000000000000000000010000000000CD
:1033000001000000000000000180000001800000BA
:10331000018000002426D30000000000000000000F
:103320000600100096003C000000000000000000B5
:10333000000000000000000C0A4E68CDCF77095055
:10334000166759C619CE8200000000000000000078
:103350000000000000000000000000000000001756
:10336000D78400030000000000000000000000C738
:10337000938F9D1E1B1C1900000000000000000020
:10338000000000000000000000000000000000023B
:103390000318850000400000000003000000030047
:1033A00000000000000000400000000000000000DD
:1033B000000000000000000000000000000000000D
:1033C00000000000000000000000000000000000FD
:1033D0000000000000000000000000677DDF7E723A
:1033E000902E554CF6E6880000000000000000001A
:1033F00000000000000000D8DCB4B8B0D8B9ABF3CE
:10340000F8FAB3B7BB8E9EAEF132F51BF1B4B8B08B
:103410008097F1A9DFDFDFAADFDFDFF2AAC5CDC722
:10342000A90CC92C97F1A989264666B28999A92DBC
:10343000557DB0B08AA896365676F1BAA3B4B2805C
:10344000C0B8A89711B28398BAA3F02408441064B6
:1034500018B2B9B49883F1A329557DBAB5B1A38345
:1034600093F0002850F5B2B6AA839328547CF1B9A2
:10347000A3829361BAA2DADEDFDB819AB9AEF5608E
:103480006870F1DABAA2DFD9BAA2FAB9A38292DBE4
:1034900031BAA2D9BAA2F8DF85A4D0C1BBAD83C22C
:1034A000C5C7B8A2DFDFDFBAA0DFDFDFD8D8F1B849
:1034B000AAB38DB4980D355DB2B6BAAF8C96198F9C
:1034C0009FA70E161EB49AB8AA872C547CBAA4B033
:1034D0008AB691325676B28494A4C808CDD8B8B4CE
:1034E000B0F19982A82D557D98A80E161EA22C54D5
:1034F0007C92A4F02C5078F184A898C4CDFCD80D0F
:10350000DBA8FC2DF3D9BAA6F8DABAA6DED8BAB28F
:10351000B68696A6D0F3C841DAA6C8F8D8B0B4B833
:1035200082A892F52C548898F135D9F418D8F1A2D4
:10353000D0F8F9A884D9C7DFF8F883C5DADF69DFE6
:1035400083C1D8F40114F1A8824EA884F311D1826A
:10355000F5D992289788F109F41C1CD884A8F3C0E7
:10356000F9D1D99782F129F40DD8F3F9F9D1D9829B
:10357000F4C203D8DEDF1AD8F1A2FAF9A88498D9E8
:10358000C7DFF8F8F883C7DADF69DFF883C3D8F458
:103590000114F198A8822EA884F311D182F5D99252
:1035A000509788F109F41CD884A8F3C0F8F9D1D950
:1035B0009782F149F40DD8F3F9F9D1D982F4C40313
:1035C000D8DEDFD8F1AD8898CCA809F9D98292A8C5
:1035D000F57CF1883ACF944A6E98DB6931DAADF226
:1035E000DEF9D88795A8F221D1DAA5F9F417D9F137
:1035F000AE8ED0C0C3AE82C684C3A88595C8A58848
:10360000F2C0F1F4010EF18E9EA8C63E56F554F1BB
:103610008872F40115F19845856EF58E9E0488F147
:1036200042985A8E9E068869F4011CF1981E110872
:10363000D0F504F11E970202983625DBF9D985A54D
:10364000F3C1DA85A5F3DFD88595A8F309DAA5FAE1
:10365000D88292A8F578F1881A849F26889821DA72
:10366000F41DF3D8879F39D1AFD9DFDFFBF9F40C14
:10367000F3D8FAD0F8DAF9F9D0DFD9F9D8F40BD8C1
:10368000F3879F39D1AFD9DFDFF41DF3D8FAFCA857
:1036900069F9F9AFD0DADEFAD9F88F9FA8F1CCF347
:1036A00098DB45D9AFDFD0F8D8F18F9FA8CAF3884F
:1036B00009DAAF8FCBF8D8F2AD978D0CD9A5DFF929
:1036C000BAA6F3FAF412F2D8950DD1D9BAA6F3FA44
:1036D000DAA5F2C1BAA6F3DFD8F1BAB2B68696A6D9
:1036E000D0CAF349DAA6CBF8D8B0B4B8D8AD84F2D2
:1036F000C0DFF18FCBC3A8B2B68696C8C1CBC3F3E7
:10370000B0B48898A821DB718D9D71859521D9ADC4
:10371000F2FAD88597A828D9F408D8F28D29DAF4D6
:1037200005D9F285A4C2F2D8A88D9401D1D9F4119B
:10373000F2D88721D8F40AD8F28498A8C801D1D940
:10374000F411D8F3A4C8BBAFD0F2DEF8F8F8F8F85B
:10375000F8F8F8D8F1B8F6B5B9B08A95A3DE3CA36D
:10376000D9F8D85CA3D9F8D87CA3D9F8D8F8F9D17E
:10377000A5D9DFDAFAD8B18530F7D9DED8F830AD7F
:10378000DADED8F2B48C99A32D557DA083DFDFDF7C
:10379000B591A0F629D9FBD8A0FC29D9FAD8A0D098
:1037A00051D9F8D8FC51D9F9D879D9FBD8A0D0FC97
:1037B00079D9FAD8A1F9F9F9F9F9A0DADFDFDFD878
:1037C000A1F8F8F8F8F8ACDEF8ADDE8393AC2C5431
:1037D0007CF1A8DFDFDFF69D2CDAA0DFD9FADB2D44
:1037E000F8D8A850DAA0D0DED9D0F8F8F8DB55F830
:1037F000D8A878DAA0D0DFD9D0FAF8F8F8F8DB7DCD
:10380000F8D89CA88CF530DB38D9D0DEDFA0D0DE2C
:10381000DFD8A848DB58D9DFD0DEA0DFD0DED8A8BB
:1038200068DB70D9DFDFA0DFDFD8F1A888902C54E7
:103830007C98A8D05C38D1DAF2AE8CDFF9D8B087AA
:10384000A8C1C1B188A8C6F9F9DA36D8A8F9DA361C
:10385000D8A8F9DA36D8A8F9DA36D8A8F9DA36D8F5
:10386000F78D9DADF818DAF2AEDFD8F7ADFA30D9A2
:10387000A4DEF9D8F2AEDEFAF983A7D9C3C5C7F141
:10388000889BA77AADF7DEDFA4F8849408A797F3A6
:1038900000AEF29819A488C6A39488F632DFF283AA
:1038A00093DB09D9F2AADFD8D8AEF8F9D1DAF3A4BC
:1038B000DEA7F1889B7AD8F38494AE19F9DAAAF1DD
:1038C000DFD8A881C0C3C5C7A39283F628ADDED9CF
:1038D000F8D8A350ADD9F8D8A378ADD9F8D8F8F96D
:1038E000D1A1DADEC3C5C7D8A18194F818F2B08996
:1038F000ACC3C5C7F1D8B8B4B09786A8319B0699B8
:1039000007AB9728889BF00C201440B0B4B8F0A8FF
:103910008A9A285078B79BA829517924705944690C
:1039200038644831F1BBAB88002C547CF0B38BB8C1
:10393000A804285078F1B088B49726A85998BBAB52
:10394000B38B02264666B0B8F08A9CA82951798BC1
:103950002951798A2470598B2058718A4469388B8F
:103960003940688A6448318B30496088F1AC002C5A
:10397000547CF08CA804285078F1889726A8599890
:10398000AC8C02264666F0899CA82951792470598E
:10399000446938644831A98809205970AB1138400E
:1039A00069A8193148608CA83C415C207C00F187F3
:1039B000981986A86E767EA999882D557DD8B1B5BF
:1039C000B9A3DFDFDFAED0DFAAD0DEF2ABF8F9D9E2
:1039D000B087C4AAF1DFDFBBAFDFDFB9D8B1F1A395
:1039E000978E60DFB084F2C8F8F9D9DED89385F1FC
:1039F0004AB183A308B5839A0810B79F10D8F1B0D5
:103A0000BAAEB08AC2B2B68E9EF1FBD9F41DD8F917
:103A1000D90CF1D8F8F8AD61D9AEFBD8F40CF1D8D7
:103A2000F8F8AD19D9AEFBDFD8F416F1D8F8AD8DA2
:103A300061D9F4F4ACF59C9C8DDF2BBAB6AEFAF8E4
:103A4000F40BD8F1AED0F8AD51DAAEFAF8F1D8B93E
:103A5000B1B6A3839C08B9B1839AB5AAC0FD3083DF
:103A6000B79F10B58B93F20202D1ABDADED8F1B07A
:103A700080BAABC0C3B284C1C3D8B1B9F38BA39130
:103A8000B609B4D9ABDEB0879CB9A3DDF1B38B8B9B
:103A90008B8B8BB087A3A3A3A3B28BB69BF2A3A3FC
:103AA000A3A3A3A3A3A3A3A3F1B087B59AA3F39B56
:103AB000A3A3DCBAACDFB9A3A3A3A3A3A3A3A3A32B
:103AC000A3A3A3A3A3A3A3D8D8D8BBB3B7F1AAF940
:103AD000DAFFD9809AAA28B48098A720B79787A838
:103AE0006688F07951F1902C870CA781976293F04A
:103AF00071716085940129517990A5F1284C6C87EA
:103B00000C95188578A38390284C6C886CD8F3A208
:103B10008200F210A8921980A2F2D926D8F188A8C2
:103B20004DD948D896A83980D93CD89580A839A6CF
:103B30008698D92CDA87A72CD8A8899519A980D975
:103B400038D8A88939A980DA3CD8A82EA83990D9C4
:103B50000CD8A8953198D90CD8A809D9FFD801DA82
:103B6000FFD89539A9DA26FFD890A80D8999A81011
:103B7000809821DA2ED88999A83180DA2ED8A886A3
:103B8000963180DA2ED8A8873180DA2ED8A8829292
:103B9000F34180F1D92ED8A882F31980F1D92ED81B
:103BA00082ACF3C0A28022F1A62EA72EA92298A84B
:103BB00029DAACDEFFD8A2F22AF1A92E8292A8F26D
:103BC0003180A696F1D900AC8C9C0C30ACDED0DEF6
:103BD000FFD88C9CACD010ACDE8092A2F24C82A8B4
:103BE000F1CAF235F19688A6D900D8F1FF0000009D
:103BF000103C000800000020F0000000902F00089A
:103C0000003D0008F000002090040000A02F0008F4
:103C1000006CDC0200000000000000000102030450
:103C20000607080900000000000000000000000076
:103C30000000000000000000000000000000000084
:103C400000000000000000000C010020B02F000860
:103C5000040000001C010020B02F00080400000038
:103C60002C010020B02F0008040000003C010020BF
:103C7000C02F0008040000004C010020C02F0008E5
:103C8000040000005C010020C02F000804000000B8
:103C90000000000000000000000000000000000024
:103CA0000000000000000000000000000000000014
:103CB0000000000000000000000000000000000004
:103CC00000000000000102030401020304060708CB
:103CD00009000000DC2F0008D02F000800000000C1
:103CE00000000000000000000000000000000000D4
:103CF00000000000000000000000000000000000C4
:0400000508000249A4
:00000001FF
